:020000022000DC
:10600000000004207963020061630200158F020022
:10601000656302006763020069630200000000001C
:10602000000000000000000000000000499B02008A
:106030006D63020000000000699B020071630200B2
:1060400091D1020073630200A1D1020073630200C8
:1060500073630200736302009DCE0200736302004B
:1060600073630200736302007363020073630200D0
:1060700073630200736302007363020073630200C0
:1060800073630200699C0200736302007363020081
:106090007363020073630200C1FE020073630200B7
:1060A0007363020073630200736302007363020090
:1060B0007363020073630200000000000000000030
:1060C0007363020073630200736302007363020070
:1060D00073630200736302007363020091C60200DF
:1060E0007363020073630200736302000000000028
:1060F00000000000736302000000000073630200F0
:10610000000000000000000000000000000000008F
:10611000000000000000000000000000000000007F
:10612000000000000000000000000000000000006F
:10613000000000000000000000000000000000005F
:10614000000000000000000000000000000000004F
:10615000000000000000000000000000000000003F
:10616000000000000000000000000000000000002F
:10617000000000000000000000000000000000001F
:10618000000000000000000000000000000000000F
:1061900000000000000000000000000000000000FF
:1061A00000000000000000000000000000000000EF
:1061B00000000000000000000000000000000000DF
:1061C00000000000000000000000000000000000CF
:1061D00000000000000000000000000000000000BF
:1061E00000000000000000000000000000000000AF
:1061F000000000000000000000000000000000009F
:10620000364937480A1A02D0072291438D4635494C
:1062100035480A1A06D00722914381F309880222E1
:1062200082F3148831483249324A00F045F8324846
:106230003249334A00F040F832483349334A00F0DB
:106240003BF833483349344A00F036F83348344990
:10625000344A00F031F834483449354A00F02CF81B
:1062600034483549354A00F027F835483549002289
:1062700000F02DF834483549002200F028F8344861
:106280003449091A082903DB002202600430016046
:10629000314A90471F482049884205D0026804309F
:1062A00003B4904703BCF7E700208646EC46002085
:1062B00000212A4A9047FEE7884207D0521A05D0AB
:1062C000037801300B700131013AF9D170478842EF
:1062D00002D002700130FAE770470000000004208D
:1062E00000E003200000042000000420A41F03009D
:1062F000982A0020042B0020D8630200D8630200F3
:1063000048090300A41F0300982A0020982A0020AF
:10631000740A0300740A0300740A0300740A030079
:10632000740A0300740A0300740A0300740A030069
:10633000A41F030010200300042B0020042B0020C6
:10634000042B0020BC5E0020BC5E0020BC5E002050
:10635000BC5E0020BC7E0020A163020021E602009A
:10636000FEE7FEE7FEE7FEE7FEE7FEE7FEE7FEE705
:10637000FEE7FEE7704700BF1048804710484FF027
:106380000701884385460F4880470F48016841F45C
:1063900070010160BFF34F8FBFF36F8FFFF730BF06
:1063A0000A480B490B4A884207D0521A05D0037895
:1063B00001300B700131013AF9D170477563020069
:1063C000000004209598020088ED00E0740A0300A4
:0863D000982A0020982A002001
:1063D800F0B595B01C46164608460D4603F0D5F9AB
:1063E8001A9B0D93CDE9086400242346082205A9C9
:1063F80028460A948DF82C400C9403F0E4F9079B86
:106408000293BDF81830ADF80C30BDF81A30ADF86D
:106418000E309DF814308DF8114003F00302012A64
:106428001DD1BDF81440059EC3F3C203C4F3831401
:106438008DF81030A20008230EA9284603F0C3F9EE
:10644800C6F3952608AB0093224602AB0EA9304648
:1064580000F0F0FB284603F09CF915B0F0BD022AC5
:10646800F8D1BDF81640C3F3C203A4098DF8103063
:106478000827082C264628BF08263B4632460EA980
:10648800284603F0A0F9A41B08AB02AA31460EA8BF
:10649800374400F033FC002CEBD1DBE7014B012241
:1064A8001A707047452B00207047000070B50E4DDC
:1064B80006460FCD88B06C460FC495E80F0084E8F7
:1064C8000F0008A9002E4FF00603084A41F8203DA6
:1064D80008BF0022064805F011F908B100F0A4FD34
:1064E800044B1E7008B070BD740A0300A564020056
:1064F800982A0020042B002007B5044B0093044A77
:106508004023FFF765FF03B05DF804FB1D6502003B
:10651800052B002038B50D4B0D4D002018700D4887
:1065280004782D5DD2B21C4665B1043007F0A4FA98
:1065380008B100F079FD084B1A7812B12378002BC6
:10654800FBD038BD0C3007F075F8F1E7452B00207B
:10655800E4540020982A0020042B002008B508489D
:10656800084A0378D35C3BB1043007F02FFA0020C7
:10657800BDE80840FFF79ABF0C3007F005F8F6E7CA
:10658800982A0020E45400200120FFF78FBF000064
:1065980008B5FFF7F9FF0421034800F0B9FA034BE7
:1065A80001225A7108BD00BF640A0300AC2A00200A
:1065B800037813F0040216D003F00303012B03D071
:1065C800022B09D0012070470A6800880232C0F304
:1065D800831002440A60F5E70B684288023303EB34
:1065E80092130B60EEE71046704700002DE9F04F5C
:1065F80089B00546861C08A8484C019200230F461E
:1066080000F8113D02F048FC23683B60D4E90123FF
:106618001344226801339B1A04F21C4704F5836A69
:1066280004F21448B3421AD3019A0023002A6DD009
:10663800012262F3010343F0040365F3891321681F
:10664800A2689DF80F000A4003320E4444F8223035
:10665800266002F045FC012009B0BDE8F08F012159
:10666800384602F0CAFD504602F0EAFD404602F004
:10667800E7FD0DF120096068D4F808B049F8100D5D
:1066880000EA0B00033004EB80004946FFF790FF57
:10669800049BB0B90BEA030204EB8202D1680591AE
:1066A8009A1C013303EA0B0B04EB8B0C01F0030378
:1066B800012B0492DCF80CB020D0022B04D08346C6
:1066C8000BE00BEA0300DDE7BDF816309B09033346
:1066D8004FEA1B4B02EB93030493404602F0B3FDD1
:1066E80008B1049B63605946384602F086FDD4E938
:1066F80001231344226801339B1A93E7BDF8143031
:10670800C3F383134FEA1B4B1344E5E7022262F3FA
:10671800010343F0040365F39F5390E7182C00200E
:106728000B4B0C48FF2210B59A600022C3F81824BE
:10673800C3E90022C3F8142483F8202402F0DEFF02
:10674800044610B9044803F049F8204610BD00BFBC
:10675800182C0020B8090300B40A030030B50A4C0D
:1067680071B10A4A0A49121BD20800239A4201D180
:10677800002030BD31F82350854202D00133F5E7BF
:10678800034654F83300F4E7CC090300640A030015
:10679800982A0020094B013903EBC000032909D8C6
:1067A800DFE801F00A020406042070470079704708
:1067B800407970470020704702207047CC090300D9
:1067C800034BD3E90030C31A58425841704700BF01
:1067D800182C00202DE9F04387B0FFF7F1FF06469B
:1067E800002840F0FC807F4DC5F81804BFF34F8F98
:1067F8006868AC6806AF47F8100D2040033005EB19
:1068080080003946FFF7D4FE029B18B1D5F818244A
:10681800002A5FD004EA0302991C013305EB8202C7
:10682800234005EB8303D268DB68049302F003037B
:10683800022B0392029162D1BDF80E306A484FEAEA
:106848009318B8F1500FC14628BF4FF0500969F3AB
:106858008F1309F10801ADF80E3002F067FF074603
:10686800002800F0A78002F090FF03A90023082267
:10687800384602F09DFF029924EA01060136B60067
:10688800B14535D95FFA89F97EB3F6B2A9EB0609A5
:10689800214003315FFA89F4B146544E05EB81017A
:1068A80008234A46384602F083FF36B109F1080347
:1068B80022463146384602F07BFF029B08F1030866
:1068C80003EB98030293D5F81834002B4BD1D5F875
:1068D80010445BE02A689A4204D86A60304607B0E0
:1068E800BDE8F08304EA030088E740493446D7E767
:1068F8002140033108234A4605EB8101DAE7012BE1
:1069080058D1BDF80C303848C3F38311062928BF85
:10691800062161F3891302318900ADF80C3002F0C9
:1069280005FF0746002845D002F02FFF0023082264
:1069380003A9384602F03CFF0026BDF80C20C2F33C
:106948008312B31C96424FEA8303BCD202994A1CB5
:1069580021400331029205EB81010422384602F0FE
:1069680027FF0136E9E7384602F013FFFFF728FF53
:1069780080F00100C6B2B1E7E3685B7923B1236810
:1069880039461B6820469847E3681C68002CF3D1F9
:10699800384602F0FEFE06A800F8114D02F07CFA17
:1069A800D5F818340BB9029B6B609DF8070002F00C
:1069B80097FADBE7D5F8104454B90D4B0D480E494A
:1069C800C01AC008000440F0020000F06FF8CDE7DC
:1069D800236820469B689847E3681C68ECE7002614
:1069E8007CE700BF182C0020B8090300242C0020E5
:1069F800CC090300FC090300C00A03002DE9F74F86
:106A0800284C80460F46924601A9012218469B460B
:106A1800D4F80890FFF7EAFD88B3019D0026A91C69
:106A28005E4506EB010234D100211F4802F0BAFB93
:106A380080F310006A1C02EA090204EB82020004D7
:106A480005EA0903033340EA1840D06014F823200C
:106A580068F3C50204F8232034F8232066F389126A
:106A680024F8232054F82320012167F39F2244F8B7
:106A7800232061F301026FF3820204F8232094F8C3
:106A880020341BB1FFF7A6FE0028FBD103B0BDE8F8
:106A9800F08F09EA020204EB82025AF82630D3602A
:106AA8000136BDE7182C00203430002000231A4698
:106AB800FFF7A4BF13B502AC012344F8042D224606
:106AC800FFF79CFF02B010BD07B5CDE900230223F4
:106AD8006A46FFF793FF03B05DF804FB1FB5CDE9E5
:106AE8000123069B039301AA0323FFF787FF05B041
:106AF8005DF804FB1FB5CDE90023069B0293079BB5
:106B080003936A460423FFF779FF05B05DF804FB99
:106B180030B50F49D1F81024002314463CB9C46895
:106B2800237152B9C1F810042260184630BDE468D8
:106B380025799D4206D02468F0E7D2681168216063
:106B48001060F2E701330A2BE7D14FF0FF33ECE78F
:106B5800182C0020094A38B50123D2F8104482F8CD
:106B680020341D4604B938BDE3685D7123682046AA
:106B78005B689847E3681C68F4E700BF182C00209E
:106B8800037A052B10B50C460FD0437A23B1084A77
:106B98000849204602F0B8FB0749204602F0B4FB3A
:106BA8002046BDE8104002F0A4BB002AF8D0F3E765
:106BB8000B0B0300E21A03002D0B0300C38873B507
:106BC80004460D4633B1144A00921449144A284623
:106BD80002F09AFB217A05291CD0637A4BB1A08870
:106BE800FFF7D8FD0F4B104953F82020284602F034
:106BF8008BFB227A0D4BA08853F822600021FFF707
:106C0800ADFD0B4903463246284602B0BDE8704048
:106C180002F07ABB02B070BD0B0B0300180B030027
:106C2800100B0300D80A0300E21A03003C0B030010
:106C3800300B03002DE9F04385B01F460C9D00235F
:106C480006460C46904695F80C902B732946384614
:106C5800FFF7B4FFB8F1060F09D8DFE808F004120F
:106C6800181F283340003146284602F04DFB002209
:106C780029463846FFF784FF85F80C9005B0BDE833
:106C8800F08322683146284602F03EFBEFE7D4E95C
:106C980000233146284602F037FBE8E7A368009353
:106CA8003146D4E90023284602F02EFBDFE7E368EB
:106CB8000193A36800933146D4E90023284602F0E3
:106CC80023FBD4E723690293E3680193A368009345
:106CD8003146D4E90023284602F016FBC7E763696A
:106CE800039323690293E3680193A36800933146F1
:106CF800D4E90023284602F007FBB8E708292DE964
:106D0800F84F80460E4617461C4636D8002593F89D
:106D18000C901D7319461046FFF750FFDFF87CA052
:106D2800DFF87CB0AE422AD918F80520594620462B
:106D380002F0EAFA0135082DF4D11649DFF864B0FB
:106D4800204602F0E1FA0025AE421DD918F805A048
:106D5800504609F0A7F9002814BF52462E2259467A
:106D6800204602F0D1FA0135082DEDD10122214645
:106D78003846FFF705FF84F80C90BDE8F88F5146B8
:106D8800204602F0C1FAD5E70349204602F0BCFAD2
:106D9800E9E700BF060B0300040B0300020B030026
:106DA800FC0A0300080B03002DE9F04F3B4F89B0A4
:106DB80000263B4B1B78F5B2AB4202D809B0BDE8C0
:106DC800F08F384B196811F835000124A0F1200222
:106DD800C0F1200304FA02F924FA03F349EA03098B
:106DE800D7E9002304FA00F8CDE9042302EA0802EF
:106DF80003EA0903134301EBC50B4CD0DDE9042377
:106E080022EA080223EA0903C7E90023079106F0EA
:106E180031F80799844611F83500A0F12002C0F135
:106E2800200324FA03F304FA02F21A4304FA00F3E3
:106E380000931D4B0192DDE90045D3E9002314407E
:106E48001D4022462B465FFA8CF40025CDE9044507
:106E5800049CA0F12005AC400394049CC0F12001DF
:106E680024FA01F1039C0C43049903948140029194
:106E7800DDE90245AB4208BFA2420CD19BF80110E4
:106E88004B1E59425941A1EB0C02DBF80430514228
:106E9800514103B1984701368BE700BF0831002004
:106EA800D430002010310020003100202DE9F84FA7
:106EB8000646244800F092F9002841D10123A6F1A2
:106EC8002001C6F1200203FA01FB23FA02F203FAB9
:106ED80006FA1D4BD3E900014BEA020B00EA0A0847
:106EE80001EA0B0958EA09021F4623D1304605F08A
:106EF800C1FF164BB8B1D3E9000140EA0A0441EAE0
:106F08000B05C3E90045D7E900234BEA0305104BFD
:106F18000C4819684AEA0204C7E900450022BDE89E
:106F2800F84F00F0FDB8D3E9000120EA0A0421EA8D
:106F38000B05E6E720EA0A0421EA0B05C3E9004548
:106F4800BDE8F88FDC300020083100200031002037
:106F5800D8300020042A2DE9F34105460C46164690
:106F68003AD905F0ADFED8B11C4B1D491D601D4B2B
:106F7800DFF884801C701C4B00221E600023C1E9CE
:106F880000231A49C1E90023013CE4B20026032783
:106F9800FF2C0CD1164A1748002100F099F803E09D
:106FA80005F056FE0028DFD002B0BDE8F08123B21C
:106FB80005EBC30201A992788DF8052015F8330076
:106FC8008DF8066042468DF8047005F083FE013C9A
:106FD800E4B20028DCD0E7E70720E5E7103100201D
:106FE80000310020D4300020D830002008310020A3
:106FF800B16D02009C0B0300B56E020070B5084D20
:10700800084E00242B789C4201D3002070BD3368C1
:10701800012113F8340005F0E3FE0134F2E700BF64
:10702800D4300020103100201FB50021039001AAA0
:1070380044F20100CDE9011100F004F805B05DF853
:1070480004FB000010B572B6FFF784FDFFF7C2FB22
:107058000028FBD1104B114C1149E41AE408240410
:1070680044F00100FFF722FD0E4B1B68DB0700D53B
:1070780000BE0D4944F00200FFF718FDBFF34F8F23
:107088000A490B4BCA6802F4E0621343CB60BFF3B2
:107098004F8F00BFFDE700BFCC090300FC090300C8
:1070A800A00B0300F0ED00E0AC0B030000ED00E0E6
:1070B8000400FA0510B504F051F8037B23B1836886
:1070C8000068BDE81040184710BD00207047000058
:1070D80073B50E4604681546D2B1237BD3B96168EF
:1070E800C1B91022204609F02FF8321C0A4BA560BE
:1070F80018BF012200934FF47A712346074803F022
:10710800EDFE0028606014BF00200E2002B070BDA4
:107118000720FBE70820F9E7BD700200040B030015
:107128002DE9F043446885B0054689461646002C8B
:1071380050D0037BA3B92E60EFF30586BEB94FF09C
:107148000208CDF8008033464A460421204603F061
:10715800DFFE0128074630D0042005B0BDE8F083E3
:10716800204603F0EFFF0028E5D00020F5E704AE45
:10717800002746F8047D4A460097334609212046F1
:1071880003F0C6FE0128E7D103F094FA00970246FF
:1071980033460621204603F0BBFE0128DCD1039BC1
:1071A80043B10D4B4FF080525A6040BFBFF34F8F31
:1071B800BFF36F8F01232B73D7E703F075FACDF870
:1071C8000080024633463946204603F0A1FE0128D6
:1071D800F0D0C1E70820C0E700ED00E01FB5044685
:1071E800406830B3EFF30583D3B104AB002243F812
:1071F800042D0821009203F08BFE012801D0042001
:107208000CE0039B43B10C4B4FF080525A6040BFD7
:10721800BFF34F8FBFF36F8F0020207304B010BDF2
:107228000222009203211A4603F072FE0128F3D0CD
:10723800E5E70820F2E700BF00ED00E043681B68BF
:1072480018470000024B5B6803B11847704700BF3E
:1072580018310020020600F00F034CBF0248034813
:10726800DB001844704700BF243100206C31002037
:1072780008B5FFF7EFFF016009B9416008BD4B6829
:107288001B684360FAE70000024B01465A68186819
:10729800104700BF6C31002038B5831EDBB2062BC7
:1072A80098BF194A194C98BFD25C2378A3F10203FE
:1072B800DBB288BF0022062B9ABF1349CB5C0023A0
:1072C8009342054603D0A2B1114804F0C1F8022D3B
:1072D80001D0082D10D101232278022A01D0082AD2
:1072E8000CD101229A4202D053B104F015FF257047
:1072F80038BD04F0E7F8EAE70023EDE70022F1E7FC
:1073080004F000FFF3E700BFB90B0300E4320020EC
:10731800B42A00200378052B73B504460CD12F4AF4
:10732800D2F88434D2F8802412F0FF0F04D12C4A0A
:10733800DBB2052B08BF144623782BBB294B1D68ED
:10734800DDB902A800F8045D274D01F0A5FD2A6803
:1073580012B9264B62881A800121234801F04DFF9B
:107368009DF8040001F0BCFD214B1B6813B10121FD
:10737800204698472B6802B070BD2B6860889B68D0
:1073880098472B685D68DBE701A91A4801F079FE88
:1073980005460028EFD02368036002A8002600F8FD
:1073A800056D01F079FD114B0F481B880268013308
:1073B8009B1AEB80314601F0F5FEA8809DF803008A
:1073C80001F08EFD01A90B4801F085FE084B1B68F2
:1073D8000146002BCFD020469847CCE700700240EA
:1073E800D00B0300D8320020E0320020B431002056
:1073F80018310020C0320020FFF78CBF012806D0CA
:1074080002D3022805D070470348FFF783BF03481B
:10741800FBE70348F9E700BFC40B0300C80B0300F0
:10742800CC0B03000148FFF775BF00BFD40B030066
:107438002DE9F04F87B006AC002644F8106D0546DC
:107448008946924698466B6800225F682946012360
:107458002046B84740B98DF8060004900446074610
:10746800BE4203D805202AE00136ECE76B680DF12F
:107478000602D3F804B02946012304A8D8476B684C
:107488000DF10702D3F804B02946012304A8D84710
:107498009DF807304B459DF8063015D1544511D15C
:1074A800109A136088F8003088F801906A68023BE7
:1074B8005468294608F1020204A8A047002007B032
:1074C800BDE8F08F0134E4B26A68023BD2F804B038
:1074D8002946002204A8D8479DF806301F44BFE774
:1074E8002DE9F743082305464FF484722F493048A5
:1074F80001F0B4FD002856D12E4804F023FE0446BE
:10750800002835D12C4B18702C4B18602C4B014699
:10751800186048222B4808F017FE482221462A48BE
:1075280008F012FE294B3DBBC3E900551D7200202F
:1075380004F05AF818B1852801D0FFF775FD244EDC
:1075480096F80890002506F10908ECB2A14504D97F
:1075580004EB440414EB080423D102A90B2301F81B
:10756800043D1B48FFF76AFE044608B104F0B4FC6A
:10757800204603B0BDE8F08395E8070083E80700DC
:10758800D5E73146E05CFFF773FE6378FAB29342C1
:1075980005D9A3781344DC4207F10107F1D101357D
:1075A800D3E70027F1E70324E2E700BFB631002064
:1075B800C032002001740200E4320020D0320020E2
:1075C800D4320020243100206C31002018310020F2
:1075D800000C030010B504F053FD08B9082010BDD5
:1075E80004F056FD04460028F8D1044804F02EF8AB
:1075F8000028F4D0FFF718FD2046F0E7C00B030081
:1076080004F07ABC05F03EB94FF08043D3F8382433
:10761800920702D50348FFF77DBED3F83824D10777
:10762800F4D47047D50B030007B502A8822300F8ED
:10763800043DFFF76FFE03B05DF804FB2DE9F3414D
:10764800037A00F109040325064615FB034527467E
:10765800AC4231D01CB394F80180002106E0E05C14
:10766800FFF7F8FD03680131002B36D1CBB29845FE
:1076780003D9A3780B44DC42F1D10334E8E731465F
:10768800E85CFFF7F5FD6A785FFA88F39A4205D956
:10769800AA781344DD4208F10108F0D10134337AA5
:1076A800E5B2AB4203D905EB45057D1901D10C4B79
:1076B80005E04FF00008E6E70024F0E713681A68D1
:1076C800002AFBD102A91E600B2301F8043D3046B5
:1076D800FFF7B4FD02B0BDE8F0811120FAE700BF62
:1076E800D0320020024B1878003018BF01207047B4
:1076F800DC32002000F00F03072B10B5044604D835
:1077080004F04EFE204605F0B1F92046BDE81040D1
:1077180005F05CB905F028B9014B1868704700BF3F
:10772800D032002070B50A4B1B687BB11E7A00224C
:10773800D5B2B54201D31B68F6E7013202EB420429
:107748001C44A4798442F3D101B10D70184670BD70
:10775800D03200201146FFF771BD08B500F00F03C5
:10776800082B07D8FFF776FD006818B1BDE8084078
:10777800FFF764BD102008BD38B5054B05461C68E9
:1077880004B938BD29462046FFF758FD2368F6E7B7
:10779800D032002038B5074B05461C680CB90620C6
:1077A80038BD29462046FFF749FD0628F8D1236849
:1077B800F3E700BFD032002038B504460D4604F088
:1077C80006FD48B1054B1B78022B05D129462046FA
:1077D800BDE8384004F0FEBC082038BDE432002083
:1077E80038B504460D4604F0F2FC48B1054B1B7849
:1077F800022B05D129462046BDE8384004F062BD79
:10780800082038BDE4320020F8B543689B68054677
:107818000C46164613B92EB1072002E098470628F1
:10782800F9D0F8BD2B7AA34213D9093504EB4404E7
:107838002C446778F3B29F4201D80020F1E76278C0
:107848009A4208D9A219A378D05CFFF753FF0136F2
:10785800F0E77378FFDE00231B78FBE74368DB68FB
:1078680070B505460C4603B198472B7AA34213D945
:10787800093504EB44042C4400256678EBB29E429B
:1078880000D870BD62789A4209D96219A378D05C91
:1078980005F06AF80135F1E700235B78FFDE002385
:1078A8001B78FBE743681B6903B118471846704704
:1078B80070B5084B1C6804B970BD267A0025E9B27A
:1078C800B14201D32368F5E700222046FFF79CFF69
:1078D8000135F4E7D032002070B5084B1C6804B9B4
:1078E80070BD267A0025E9B2B14201D32368F5E7D5
:1078F8002046FFF7B3FF0135F5E700BFD03200207F
:1079080038B50478092C054620D023D8032C00F07C
:10791800BC8012D8012C00F0A68040F28D80032094
:10792800FFF7BAFC0220FFF78DFC2846FFF724FF7B
:107938002846BDE83840FFF7A7BC052CF8D0C0F0B2
:10794800B380062C00F0BF80082C13D12046FFF727
:1079580079FC95E0812C0ED005D80F2CF6D0802C20
:1079680044D00A2CF1E7832C4CD021D3842C53D05B
:10797800852CDDD038BD5E48FFF786FC5C48FFF7F4
:10798800FBFE0D20FFF75EFCFFF7A6FF00F09DFF52
:10799800584B1B6853B9584B187A00F0010004F093
:1079A80043FB0120BDE83840FFF776BC0120F4E72F
:1079B800FFF792FF04F04AFF0020FFF76DFC4F48E5
:1079C800FFF7DAFE4D48FFF75FFC0E20FFF73AFCA1
:1079D8004B4B1B78023BDBB2062BCBD8494AD35C16
:1079E800002BC7D0BDE8384003F06CBD444B1B7872
:1079F800062B05D0072B01D0052BBBD10220D1E7E0
:107A08000820CFE73E4B1B78032BB3D104F070FF5F
:107A18000028AFD00420C5E7394B1B78032B05D1CC
:107A280004F066FF10B10420FFF736FC04F03AFBBF
:107A380000289FD00620B5E7314B1B78032B01D0D7
:107A4800082B02D13048FFF75BFF0020FFF7FAFB55
:107A5800284B1C68002C8DD020462946FFF7EEFBEA
:107A680023685C68F6E7FFF737FF00F025FF022080
:107A7800FFF712FC2046FFF7E5FB2846FFF704FC5A
:107A88002846BDE83840FFF777BE1D4B1B78082B0A
:107A980006D10220FFF700FC04F048FB0320EAE7C8
:107AA8000520FFF7F9FBF9E70320FFF7CBFB1748A1
:107AB800FFF7EAFB1548FFF75FFE114B1B78062B13
:107AC8009CD107206EE78078FFF7C4FB29464368FE
:107AD8000068984700283FF44DAFA87800F00F03DE
:107AE800013B062B3FF646AFBDE8384004F032BCF8
:107AF800D60B0300D432002018310020D70B030026
:107B0800E4320020B90B0300D80B0300D90B0300A3
:107B180073B5234D002301932B6823B921492248CB
:107B280001F0E9FA28602C68ECB1A68886B1E388F0
:107B3800B3F5006F24BF0023E380E388ADF8063077
:107B48005A1C013EE280A68001A8FFF7D9FE07E093
:107B58002046FFF7D5FE1349134801F0F7FA2E60C7
:107B6800012002B070BD114B18680028F9D002A896
:107B780000F8054D01F090F90D4B0C481A88B2F544
:107B8800006F28BF1C801A88ADF80620511C198088
:107B9800012101F048FB9DF8030001F0A1F9D3E7AA
:107BA800E832002014310020C0320020E0320020EA
:107BB800B4310020C36903B1184770470368002235
:107BC8001A845A62DA62C3E91E22C3E9202203F149
:107BD80034025A677047CA699A4210B543600CD399
:107BE8008C690460086F18440867D01A1C44C8617F
:107BF80000308C6118BF012010BD01F1280202601D
:107C08008B670020F8E70000F0B5BB4D0C7A2C70AC
:107C18000468B4F5517F00F0CA8200F2DA8040F2BD
:107C28002636B44200F03E826DD840F21636B44291
:107C380000F0FB8126D840F21336B44200F0DA8116
:107C4800B4F5457F0BD2002C00F0C28140F2123609
:107C5800B44200F0C581002303601846BFE100F07C
:107C6800D78140F21536B442F5D100240AB106791D
:107C78001655013402269C420671C0F0D78140F2A5
:107C88001633AAE140F21936B44200F0E78114D85D
:107C980040F21736B44200F0D481B4F5467FDAD109
:107CA80000240AB106791655013400269C42067153
:107CB800C0F0D58140F219338FE1B4F5487F00F068
:107CC800E48140F22136B442C5D100240AB10679D4
:107CD80016558A4E0F7A3678DFF824C2B74204F177
:107CE800010440F2548301F1090706EB460607EB4D
:107CF800060E9C42BE5DCCF800E00671C0F0D38150
:107D080040F2263369E140F23336B44200F009828A
:107D1800B4F54D7F38D2B4F54B7F00F0DE811CD826
:107D280040F22736B44200F0C981B4F54A7F92D1B7
:107D380000240AB106791655714E0F7D36683678DB
:107D4800B74204F1010440F0E18102269C42067129
:107D5800C0F0C4814FF44B733FE140F22D36B4427A
:107D680000F0C78140F22E36B4427FF474AF00248D
:107D78000AB10679165501340026A342067100F2AD
:107D8800EA814FF44F7328E1B4F54F7F00F0E281A8
:107D980006D8B4F54D7F00F0D08140F23536E3E7E0
:107DA80040F24236B44200F0EA8100F2F48140F237
:107DB8004136B4427FF44FAF00240AB10679165514
:107DC800013424269C420671C0F0DA8140F2423325
:107DD80003E140F25636B44200F053826AD8B4F553
:107DE800537F00F01C8232D840F24936B44200F08A
:107DF800FD8115D840F24536B44200F0E481B4F56F
:107E0800527F7FF428AF00240AB106791655013451
:107E180024269C420671C0F0EA8140F24933DCE036
:107E280040F24A36B44200F0ED8140F24B36B4429B
:107E38007FF411AF00240AB10679165501348E7DFE
:107E480006719C42C0F0EC814FF45373C5E040F2D8
:107E58005136B44200F0FC8115D840F24F36B44296
:107E680000F0E981B4F5547F7FF4F5AE00240AB13F
:107E780006791655013402269C420671C0F0E98144
:107E880040F25133A9E040F25236B44200F0EC819E
:107E980040F25536B4427FF4DEAE00240AB10679CA
:107EA8001655013424269C420671C0F0EB8140F23D
:107EB800563392E040F27236B44200F0278246D838
:107EC80040F25936B44200F0F5811BD840F25736DB
:107ED800B44200F0E281B4F5567F7FF4BCAE0024D2
:107EE8000AB10679165501348E7D06719C42C0F0A0
:107EF800E28140F2593370E0EE320020ED3200208A
:107F0800F032002040F26D36B44200F0F28140F2C7
:107F18006E36B4427FF49FAE00240AB10679165536
:107F2800AF4EB04F36683F7896F801C0BC4504F1B3
:107F3800010440F2318296F802C03E449C4216F891
:107F48000C600671C0F0E38140F2723345E040F204
:107F58008336B44200F0FA81B4F5617F14D240F25E
:107F68007736B44203D0B4F55F7F7FF474AE002453
:107F78000AB10679165501344026A342067100F26B
:107F8800E68140F2833328E040F28936B44200F0BB
:107F9800F48140F28E36B44200F0EF81B4F5617F8F
:107FA8007FF459AE00240AB1067916558C4E0F7D20
:107FB80036683678B74204F1010440F0D4810E6A7D
:107FC8009C4236780671C0F0D98140F2893304E0CA
:107FD8000824047123B940F2123303600120F0BD74
:107FE8000AB1047914700B24012B04710ED840F2E5
:107FF8001333F2E700240AB10679165501340E7DD1
:1080080006719C4205D34FF44573E6E70124F2E775
:1080180000240AB106791655013402269C420671DD
:10802800FFF424AE40F21533D7E700240AB10679ED
:108038001655013402269C42067103D340F21733C9
:10804800CBE700240AB10679165501344E7E067135
:108058009C42FFF426AE4FF44673BEE700240AB1F3
:1080680006791655604E0027013437705E4E377812
:108078002E78B74202D340F29933AEE70926A342DD
:10808800067103D84FF44873A7E700240AB10679AC
:108098001655013404269C420671FFF417AE40F2CF
:1080A80021339AE700240AB10679165501340026CF
:1080B8009C42067103D340F227338EE700240AB1AD
:1080C80006791655464E36680134767806719C4214
:1080D800FFF42FAE4FF44A737FE700240AB1067904
:1080E8001655013402269C42067103D340F22D3303
:1080F80073E700240AB10679165501344E7E0671DD
:108108009C42FFF435AE40F22E3366E78F7DB742CE
:108118007FF432AE0A269C42067103D340F2333311
:108128005BE700240AB106791655013400269C4203
:10813800067103D34FF44D734FE700240AB1067953
:108148001655013400269C420671FFF411AE40F228
:10815800353342E700240AB106791655204E0F7DC3
:1081680036683678B74204F1010440F0A880052645
:108178009C420671FFF421AE40F241332DE7002402
:108188000AB106791655013400269C42067103D3BC
:1081980040F2433321E700240AB106791655013429
:1081A80010269C42067103D34FF4517315E700243F
:1081B8000AB106791655013401269C42067103D38B
:1081C80040F2453309E700240AB10679165501340F
:1081D80005269C420671FFF417AE4FF45273FCE675
:1081E800F0320020EF320020ED32002000240AB1E6
:1081F80006791655013401269C42067103D340F2D4
:108208004A33EAE600240AB10679165501340326F2
:108218009C420671FFF40FAE40F24B33DDE60024BA
:108228000AB106791655013404269C42067103D317
:1082380040F24F33D1E600240AB1067916550134CD
:1082480024269C420671FFF412AE4FF45473C4E620
:1082580000240AB106791655013402269C4206719B
:1082680003D340F25233B8E600240AB10679165512
:10827800013405269C420671FFF410AE40F25533D6
:10828800ABE600240AB106791655013406269C424D
:10829800067103D340F257339FE600240AB10679EA
:1082A800165501340E7D06719C42FFF419AE4FF449
:1082B800567392E600240AB1067916550134374EF2
:1082C80036687778364E3770364E00273770354E19
:1082D8003778334E3678B74204D3334F3E78013679
:1082E8003E70C3E60726A342067103D840F26D33F9
:1082F80073E600240AB106791655013405269C4216
:108308000671FFF40AAE40F26E3366E600240AB145
:1083180006791655214E0F7D36683678B74204F136
:10832800010407D103269C420671FFF421AE40F2F6
:10833800773352E68F7DB7427FF41EAE02269C4209
:108348000671FFF415AE4FF45F7346E600240AB1D8
:1083580006791655013400269C420671FFF423AEB7
:108368004FF4617339E68F7DB7420BD100269C42EA
:10837800067103D340F28E332FE600240AB1067942
:1083880016550134074F3E7801363E709FE70023AB
:10839800CCF800301B78FFDE0023FBE7F03200202A
:1083A800EC320020EF320020ED32002010B50446F8
:1083B80058B90868037B202B09D100F10E01072268
:1083C800183007F098FE204610BD0320FCE7062071
:1083D800FAE7037A012B08D9427B012A00F10C0342
:1083E80006D9827B13445878704700235B78FFDEF8
:1083F80000231B78FBE700002DE9F0430B7889B0D8
:1084080005460E460E2B17D8DFE803F00A080A0ABD
:10841800160CA2161608160A0A0A0A00FFF7CEFB5F
:10842800002427E04A78D1094FEA521330D013F0DC
:10843800030303D0012B21D006241BE002F01F0206
:10844800012AF9D1B478062CF6D105A8039300F0D7
:10845800C1FC03ABF27831790093074603462846FE
:10846800FEF7E6FF052805D0039A3946701C00F090
:1084780047FA0446204609B0BDE8F083B378212BBB
:10848800DAD1B6F80720072AD6D101681831EDE706
:10849800012BD1D1B3780768202B36D0222BCBD132
:1084A800B6F80730002BC7D197F82030B6F803404C
:1084B8003C8403F0010304F00104A342B0D0A4B249
:1084C800002C0CBF03210221FFF774FB002CA7D15D
:1084D8002B7A012B40F2D7806B7B05F10C02002B25
:1084E80000F0D380AB7BD05C04F092F82846FFF70D
:1084F80070FF04F08DF807F134037C62FC62C7E971
:108508001E44C7E920447B67B4E7B6F80730072B59
:1085180092D108A800244FF4E462BA8100F8154DFE
:108528000E37CDE90573079400F0B6FC204605A97F
:10853800FFF742F9044630B9564B03A9CDE9033594
:1085480000F0CCF904469DF80B0000F0C9FC91E757
:10855800037A002B00F09B80837A00F10901002B3D
:1085680000F09380C27AB3788A5C9A423FF458AF9D
:108578001B06F4780AD524B1032C0CBF002403246D
:1085880078E701212846FFF715FB73E7012C3FF434
:1085980047AF04D3032C3FF443AF03246AE70668CC
:1085A800FFF717FF3C4BB76A059306F10C038046AB
:1085B8000693B7B9F36FF46AB767C6E91F736CB16E
:1085C80006F12C0103C906F1240383E80300F762CE
:1085D80005A94046FFF704F9044600E0746200214B
:1085E800D0E7D6F88490706A4F4528BF4F4606F109
:1085F80034043A46214607F07EFDF36F3B44C6F843
:108608008030A9EB0703B367F36A00223C44F267A2
:108618007467002B35D006F12C0999E8030006F1A0
:10862800240787E803001446F262B36F706A1BB927
:10863800746A002CCCD1D2E7B26A716F9A4216D80C
:1086480007F059FDB36AB26FC6F88030D21AB26724
:10865800726F1A44726700212846FFF7ABFAF36A73
:108668007BB199E8030087E80300F462DDE71A4666
:1086780007F041FDB26FB36AF2679B1AB362736A7F
:1086880013447362D4E76378FFDE1B78FCE75B78FA
:10869800FAE700BFB5830200DF7B02001FB503685D
:1086A8001B8CDC0714D5037A012B13D9437B00F10B
:1086B8000C0493B1837BE05C9306CDE901120CBFF7
:1086C8000123002301A90393FFF776F804B010BD36
:1086D8000820FBE700235B78FFDE1B78FCE70368D4
:1086E800D3F8800070470000F7B50468238CDB07D7
:1086F8000F4616463BD5656A002D32D1A16F9142CF
:108708000ED3616F384607F0F6FCA36FC4F880609B
:108718009B1BA367636F33446367284603B0F0BDB0
:10872800C4E90972FFF755FE134B009304F10C03DB
:108738000646019369B10A463846616F07F0DBFCCB
:10874800A36FA26AD21AA262626AC4E91E531A44CB
:10875800626269463046FFF743F8002808BF922056
:10876800DCE7E36A2BB9C4E90B129220D6E70820AC
:10877800D4E71120D2E700BFDF7B0200002070475A
:108788002DE9F04F4B6887B081460C4602925BB9E1
:108798000B681B681B683BB98D682DB9C0E900558B
:1087A800284607B0BDE8F08F03F0D0FDE768029BCC
:1087B8009F4228BF1F464FF0000804F1100383466C
:1087C8000197464601250393019B002B2DD0A368F2
:1087D800019A616893429A4628BF924641B352462D
:1087E8000BEB060007F087FC00236360A268E368D0
:1087F8000199A2EB0A02A3EB0A03A1EB0A01A2600A
:10880800E360019156440ABBB8F1000F38D02268E2
:10881800126812682260002B30D02368D3B96360D5
:108828001EB1029BB34288BF0025C9E900B6B7E76D
:10883800002BDBD0216803984B680BEB0602D3F8BA
:1088480004805346C0474FF00108CFE7002B08BF0C
:108858000025B9E70DF1180A00234AF8083D2168F8
:108868004B685B6800221F4650460123B84708B989
:108878002061A9E7A3680133A360F0E71D46A3E7D9
:10888800002BCAD145469FE7084B1A7882420CD084
:10889800052818BF064A187018BF137805481CBF6A
:1088A80023F002031370FFF72BB870470033002042
:1088B8001C330020100C030008B50020FEF71AFF37
:1088C8008020BDE80840FEF715BF08B50020FEF778
:1088D80021FF8020BDE80840FEF71CBF38B50546DB
:1088E8000C4603F0D9FDA84205BFD4E90001034BAB
:1088F8001020C3E9000108BF002038BD2033002044
:108908007FB5C38893421D4628BF154693420E463D
:10891800144624D9802003F055FCB4FBF0F303FB84
:108928001040B0FA80F04009039004A8002300F832
:108938000D3DCDE9016500F0AFFA01A98020FEF7F1
:108948003BFF044620B907498020FFF7C7FF0446CC
:108958009DF8030000F0C4FA204604B070BD002062
:10896800E2E700BF440C03002DE9F04F0C78062C19
:1089780087B00E4600F0008220D8022C3DD003D8E4
:10898800012C32D00624F1E1032C32D0052CF9D188
:108998000DF10D00B24D8DF80C4003F011FD0023D0
:1089A8002B609DF80D3003F01F02032A00F2888126
:1089B800DFE812F02D0022017D0165000D2C00F08A
:1089C800C98107D80B2C18D00C2CDBD10020FFF75D
:1089D8005BFF12E00E2C00F0CD81852CD2D1A14B8B
:1089E8001B78032BCED1042000E00320FFF74CFFB7
:1089F800C8E79D4800F027FC08B90024B6E19B4B66
:108A080001221A60BFF36F8FBFF34F8FF5E7C3F3EF
:108A18004116A6BBDB099DF80E1000F0A6800629BA
:108A280016D0082900F0948049BB914C02222046B8
:108A380007F08AFB237843F0010222708D4A1278EE
:108A4800910744BF43F003032370022288490EE0D4
:108A58009DF81030022B16D0032B69D0012B0ED1B4
:108A6800BDF81330002B00F07281834912220DF1FA
:108A78000D00FFF745FF0446062C40F0298103A8A6
:108A8800FEF788FE11E1BDF81370002F00F05F813A
:108A9800092F28BF0927FEF73FFE4FF009080446B3
:108AA800B14674BB724C75493A46204607F023FB21
:108AB8002671A4F80280FEF715FE18B1E37943F099
:108AC8002003E371FEF728FE6D4BC3E900049F60A5
:108AD800BDF81320DA6001A800238DF8043000F0F7
:108AE800DBF968498020FEF77BFE044620B9664919
:108AF8008020FFF7F3FE04469DF8040000F0F0F92B
:108B0800BAE7CDF804904FF0000A63680022D3F862
:108B180004B02146012301A8D84730B9237A1E445E
:108B28002368D044F6B21C68BBE70AF1010AECE7F7
:108B3800BDF81330002B00F00A81BDF811109DF824
:108B48000F0000F095F90146002898D002788EE7CA
:108B5800444A1278052A03D1454A1370012275E761
:108B6800042A8CD1424B1E70F8E7032910D009293A
:108B78002CD0012983D1BDF80F30012B7FF47FAFB2
:108B8800FEF7B0FD60B13B4A137823F002030FE013
:108B9800BDF80F30012B7FF472AFFEF7A3FD18B9B3
:108BA8000F2403F076FCE1E0324A137843F0020325
:108BB80013702B68002B00F0CA8003F06DFC04468C
:108BC80000287FF41AAF03F021FCCFE0254B1B7877
:108BD800043B012B01D90824E3E79DF80F302BB99A
:108BE800FEF77AFE0420FFF74FFEE2E7012B55D18E
:108BF800FEF75EFE0520F6E701A99DF81100FEF7D5
:108C080091FD074608B91024CBE703AA9DF8041084
:108C1800FEF7A0FD062804465AD19DF80D2012F053
:108C2800600FBED10F4B9DF8041018789DF80E30D8
:108C3800D6092BD073B10A2BB3D10528CBD138462E
:108C4800FEF730FE0A49324608700DF10D00FFF7B5
:108C580057FE2AE00528BED105490B800222F4E719
:108C68002033002000330020283300205C700240AD
:108C78002C3300201C330020300C0300110C03009F
:108C8800043300205C0C0300440C03000B2B88D138
:108C98000528A0D1BDF80F30FF2B01D9072480E7A4
:108CA8009DF80F203846FEF7AFFD044610E09DF80A
:108CB8001100020706D19DF80D3013F0600F0BD09C
:108CC80006246EE703A9FEF748FD06280446F2D0FD
:108CD800002C3FF46EAF64E79DF80E20384B9DF8EA
:108CE80011401B78012A1ED012D3032AE8D104F0C0
:108CF8000F02072AE4D8BDF80F100029E0D1052B90
:108D080002D0002A7FF467AF204603F023FB50E728
:108D1800052B02D023077FF45EAF204603F026FB25
:108D2800284908809AE704F00F02072AC8D8BDF836
:108D38000F100029C4D1052B02D0002A7FF44BAFB5
:108D4800204603F02DFB204603F090FE31E703F0A8
:108D58009DFB52E64FF08043D3F8384414F00104E9
:108D680001D0022033E60120FFF78EFD204607B030
:108D7800BDE8F08F01202AE6C8780328F6D0124D06
:108D88002B68D3B100222A606968984704460028F6
:108D98007FF407AF2B6823B1B378002B7FF42DAE97
:108DA80011E70A4B1B68082B04D1094B1B68002BE1
:108DB8003FF423AE03F06AFBD8E70E24F1E600BFC8
:108DC800003300202C330020203300203001001015
:108DD8003401001008B1402303600148704700BF08
:108DE8002C33002070B54FF0805286B0D2F8A830EE
:108DF800D2F8A42000926FEA83436FEA934302AD4E
:108E08009BB2094A094E0D21284607F050F9002463
:108E1800284607F0CCF9844201D306B070BD2B5D1B
:108E2800A3550134F4E700BF640C03006C33002041
:108E380010B50E4B53F8204023780BB9A01C10BD79
:108E48000020FFF7C7FF2246E4B2131B12F8011BEC
:108E5800DBB231B901335B00DBB243F4407303800A
:108E6800EDE7131BDBB220F81310EEE7C00C03008C
:108E780008B9FFF7DDBF052807D8054A105C20B1FF
:108E8800044B53F82030002BF3D10020704700BF6B
:108E9800D80C0300C00C030070B5EFF3108672B64F
:108EA8000C4A946801239CB993600B4B0B4DD3F883
:108EB800801029401160C3F88050D3F884105160A5
:108EC8004FF0FF32C3F88420047006B962B670BD53
:108ED8000370FAE77C33002000E100E0FC06FFBDE8
:108EE800084B9A6810B55AB150B9EFF3108172B6B1
:108EF800054A1C6814605C685460986001B962B6E1
:108F080010BD00BF7C33002000E100E01EF0040F1C
:108F18001CBFEFF309800AE0EFF308800549064A11
:108F2800884201D8904202D88D464FF00000034B8A
:108F3800184700000000042000E003206D8F0200A5
:108F4800BFF34F8F0549064BCA6802F4E06213432A
:108F5800CB60BFF34F8F00BFFDE700BF00ED00E01F
:108F68000400FA052DE9F3470546FDF7F3FDFDF783
:108F780031FC0028FBD12D4B2D4C9F6A2D4BE41A58
:108F8800E408240444F00104002D49D0AA692A49C0
:108F98002046FDF78FFDEB680193AB6800932749E6
:108FA800D5E900232046FDF7A5FDEB690093244988
:108FB800D5E904232046FDF791FD1C4BDB6A990790
:108FC80003D520492046FDF771FDDFF88890DFF8CA
:108FD80088A000264FF0010808FA06F33B4206D0A5
:108FE80059F826201AB151462046FDF763FD01368F
:108FF8001A2EF1D13A0605D50C4B13495A6B204667
:10900800FDF758FD3B0405D5084B10499A6B2046DF
:10901800FDF750FD2846FFF793FF02B0BDE8F08743
:109028000B492046FDF742FDC7E700BF00ED00E011
:109038002C0A0300CC090300DE0C0300F30C030028
:10904800280D0300830D0300D20D0300F20D030069
:10905800500D03000C0E0300C70D030010B561B1DD
:10906800B2FBF3F403FB1424A4B244B9C0E900141E
:1090780084608281C381204610BD0E20FCE7092050
:10908800FAE737B550E8013F9DB2C4892544848981
:10909800A54228BF2D1B0489A54202BFBFF32F8F0D
:1090A800002207E0C5EA030540E80154002CE9D195
:1090B8004FF001028DF803200193019B9DF80320D6
:1090C8000B6002F0FF0322B10B880068184403B05C
:1090D80030BD1846FBE70A884B889A4209D150E808
:1090E800012FC2EA024240E80123002BF7D10120F8
:1090F80070470020704737B550E8023F1FFAA3F5C4
:10910800C488A54202BFBFF32F8F00220DE0C48997
:1091180025448489A54228BF2D1BC3EA054540E89C
:109128000254002CE8D14FF001028DF8032001937E
:10913800019B9DF803200B6002F0FF0322B14B88CE
:109148000068184403B030BD1846FBE70A884B880E
:109158009A4209D150E8022FC2EA224240E802238B
:10916800002BF7D1012070470020704701F01F0243
:109178004B090121914000EB830000F01DB801F07C
:109188001F0301229A404B0900EB8300D14300F0F2
:1091980029B84B0901F01F0150F82300C84000F01E
:1091A8000100704750E8002F0B4640E8003C9CF057
:1091B800000FF7D11046704750E8003F43EA01021C
:1091C80040E8002C9CF0000FF6D11046704750E89C
:1091D800002F02EA010340E8003C9CF0000FF6D1A2
:1091E8001046704750E8003F03EA010240E8002CAF
:1091F8009CF0000FF6D11046704750E8003F03EB93
:10920800010240E8002C9CF0000FF6D11046704790
:1092180050E8003FA3EB010240E8002C9CF0000F4F
:10922800F6D11046704750E8003F8B422CBF5A1ABF
:109238001A4640E8002C9CF0000FF4D11046704705
:109248000121FFF7B9BF0021FFF7C1BF10B590B1E9
:10925800D0E9012301689B1ADBB20A60013BDBB24B
:10926800FF2B026802D10020107110BD11684C1C40
:1092780014600B70F2E70E20F7E737B5054602A831
:10928800002400F8014DFFF707FE2A686B68116893
:1092980099420ED9481E106011F8014CEB68298AD2
:1092A80001FB0434AB6811791B1ADBB2994238BF51
:1092B80013719DF80700FFF713FE204603B030BD79
:1092C80037B5054602A8002300F8013D0C46FFF714
:1092D800E3FD2A681368591C1160E968641A298A31
:1092E800B4FBF1F41C709DF80700FFF7F9FD03B01B
:1092F80030BD826810B504462AB143690168006927
:1093080098470023A36010BD0EB403B5039929B193
:1093180002AA04AB42F8043D00F06AF802B05DF816
:1093280004EB03B07047826830B40468551C85604C
:10933800A154D0E901329A4202D330BCFFF7D9BF19
:1093480030BC70472DE9F84F9946DDE90A431746C6
:10935800824688460A460126BA420FD24E4538BF91
:109368004E4613F0010B01D164B900240125B9F16F
:10937800010F1AD909F1FF397D43F8E7B2FBF7F27B
:109388000136E9E79B070ED5B9F1000F0CBF302570
:109398002025A642EAD2013C29465046FFF7C3FFE2
:1093A800002CF6D1E1E72025F3E7B8FBF5F39F425F
:1093B800E2D9DFF83890B8FBF5F3504619F80310F6
:1093C80005FB1388FFF7AFFFB5FBF7F5002DF2D1CA
:1093D800BBF1000F02D00CB1A64201D3BDE8F88F53
:1093E80020215046013CFFF79EFFF4E734130300A9
:1093F8002DE9F74F054690460E46002900F03A81C0
:1094080016F8011B002958D0252940F0D1800027E3
:1094180002E047F001071646324612F8013B2D2BB1
:10942800F7D0302B04D02B2B05D147F00407F2E7F7
:1094380047F00207EFE700242A2B06F101021BD1AF
:10944800D8F80030191D1B68C8F800101C441646CF
:1094580033782E2B1CD101364FF0000A314611F813
:10946800012BA2F13000092814D80A2303FB0A2390
:10947800A3F1300A0E46F1E712F8013CA3F13001DE
:109488000929E5D80A2101FB0434303C1646D3E704
:109498004FF0000A324612F8011B01F0FB00682861
:1094A8001646F8D0692916D054D8582970D00ED845
:1094B80025297DD03378002BA2D12B7B002B00F0FF
:1094C800D980284603B0BDE8F04FFFF712BF6329E3
:1094D80068D06429EED1D8F80020D2F80090111D88
:1094E80089EAE972C8F80010A2EBE9724FF0010BA3
:1094F800092A61DCD34538BFD3462CB1B9F1000F36
:1095080001DB790700D5013CBA0702D5BAF1000F93
:1095180004D0FB0702D4002C54D10024B9F1000F69
:1095280058DAC9F100092D212846FFF7FCFE07F09B
:109538000302022A05D1BAF1000F02D1002C4DD145
:109548000024CDE9004753460A2249462846FFF73A
:10955800F9FEAFE7732954D016D87029AAD1D8F8E4
:1095680000301A1DC8F80020302128461C68FFF773
:10957800DAFE78212846FFF7D6FE00220823CDE937
:10958800003221461022E1E775292FD0782991D1A0
:10959800D8F800100A1DC8F80020CDE90047534646
:1095A80010222CE0D8F800301A1D1978C8F80020CD
:1095B8002846FFF7B8FE7DE70A230BF1010B92FB63
:1095C800F3F295E7A345A9D220212846013CFFF7ED
:1095D800AAFEA0E77807AAD52B21A5E7A345B0D214
:1095E80030212846013CFFF79EFEA7E7D8F8001077
:1095F800CDE900470A1DC8F8002053460A22096829
:10960800A4E7D8F800301A1DC8F80020F907D3F8E5
:10961800009012D54F46A7EB090B17F8011B41B96B
:10962800A345BFF447AF20212846013CFFF77BFE46
:10963800F6E72846FFF777FEEDE7B9F1000F17D0F8
:10964800484606F0B4FD0746BC4200D954B909F1B2
:10965800FF3919F8011F00293FF42CAF2846FFF7FE
:1096680062FEF6E720212846013CFFF75CFEEBE7A7
:109678004F46E9E703B0BDE8F08F2DE9F047B0F8B1
:1096880006904479D2F800A09DF8208009FB04F4E4
:10969800043C06460AEB0300A0420F4688BFA4EB31
:1096A800030A191DC2F800A0B1FBF9F509FB151151
:1096B8004DB9A9EB0104544528BF5446BAF1000F2F
:1096C80004D1BDE8F0873668013DF1E704317B1924
:1096D80070182246B8F1000F0ED001461846AAEBC2
:1096E800040A06F008FDD145254436684C464FF07B
:1096F800000128BF5446E1E71946F0E7FFF7A6BD89
:10970800F8B546790146721E0546002393422D6836
:1097180003D30024A64202D8F8BD0133F6E70F6848
:109728002846FFF7CDFD01343946F3E72DE9F84324
:10973800068ACD1C0746FFF7A0FD043E35440446C3
:10974800B5FBF6F5F0B14FF48073EDB28380C680B7
:10975800013D076081464FF00008A84512D23846FF
:10976800FFF78BFD064648B163790133637108F151
:109778000108C9F8000007608146EEE72046FFF7B8
:10978800BFFF34462046BDE8F88301210430FFF7C7
:1097980034BD10B5012104460430FFF739FD10F03F
:1097A800FF0F04D12046BDE81040FFF7A9BF10BD48
:1097B8001FB504AC44F8042D002200922246FFF79E
:1097C8005CFF04B010BD1FB504AC44F8042D0122A1
:1097D80000922246FFF751FF04B010BD83680022B3
:1097E8005A609A60C3E90422DA601A6070470B680D
:1097F8004A684360934208BF0023016008BF436082
:109808007047436843B10268916852680B449342B9
:10981800436004BF00234360704700000D4930B522
:10982800A1F594720225914201D800200EE08B1A0E
:10983800DB1093FBF5F302EBC30452F83330834299
:1098480005D802D204F10802EDE7606830BD214670
:10985800E9E700BF8814030008B5FFF7DFFF024BF4
:10986800002808BF184608BD4D130300054B1B68A8
:10987800082B01BF044B1868B0FA80F0400918BFE4
:1098880000207047300100103401001008B54FF077
:1098980080430022C3F80C21C3F81021C3F83825EF
:1098A8004FF0805203F54043D2F80414C3F8201552
:1098B800D2F80814C3F82415D2F80C14C3F82815E4
:1098C800D2F81014C3F82C15D2F81414C3F83015B4
:1098D800D2F81814C3F83415D2F81C14C3F840157C
:1098E800D2F82014C3F84415D2F82414C3F8481544
:1098F800D2F82814C3F84C15D2F82C14C3F8501514
:10990800D2F83014C3F85415D2F83414C3F86015DB
:10991800D2F83814C3F86415D2F83C14C3F86815A3
:10992800D2F84014C3F86C15D2F84424C3F8702553
:10993800FFF79CFF10B1384B384A1A60FFF796FFC3
:1099480018B1374BFB22C3F81825FFF78FFF48B132
:109958003449354B0A681B6822F00F0203F00F03E5
:1099680013430B60FFF782FF18B1304B4FF40072BE
:109978001A604FF08043D3F80024D20744BF6FF039
:109988000102C3F800242A4AD2F8883043F470034D
:10999800C2F88830BFF34F8FBFF36F8F4FF010239B
:1099A800D3F80022002A03DBD3F80432002B2FDA85
:1099B800204B0122C3F80425D3F80024002AFBD049
:1099C8004FF010221221C2F80012D3F80024002A06
:1099D800FBD04FF010231222C3F80422154B1A466D
:1099E800D3F800140029FBD00021C3F80415D2F8DD
:1099F8000034002BFBD0BFF34F8F0D490E4BCA68C4
:109A080002F4E0621343CB60BFF34F8F00BFFDE762
:109A18000A4B0B4A1A6008BD8C5600404881030067
:109A280000F00040E40E004058020010409602404A
:109A380000ED00E000E001400400FA05BC2A002027
:109A48000090D00338B5430704461CBF20F0070434
:109A5800083400F021FE0C4B1A681AB90B4A22F0A0
:109A680007021A600A490A6841F6F77014448442EA
:109A780008D8A24206D21D680C60154400F0A0FE6A
:109A8800284638BD0025F9E78833002094330020A4
:109A98008C530020704700F108034FF0FF324360F9
:109AA800C0E90223036100230360704700230361B8
:109AB800704743684B609A688A609A6851609960F9
:109AC800036808610133036070470A68531C30B5A6
:109AD8000AD103695A684A6091608B6059600368CB
:109AE80008610133036030BD00F108035C68256834
:109AF8009542EFD82346F9E7D0E9011203698A6055
:109B0800826851605968814208BF5A600022026128
:109B18001A68013A1A601868704700000748006818
:109B280080F3088862B661B6BFF34F8FBFF36F8FBB
:109B38004FF4F07080F3118800DF00BF006002006E
:109B4800064B19680868B0E8F04F80F30988BFF33E
:109B58006F8F4FF0000080F311887047A4530020E6
:109B6800EFF30980BFF36F8F144B1A681EF0100FC4
:109B780008BF20ED108A20E9F04F10604DF8043D31
:109B88004FF0400080F31188BFF34F8FBFF36F8F02
:109B980000F0DEFE4FF0000080F3118808BC196861
:109BA8000868B0E8F04F1EF0100F08BFB0EC108A3C
:109BB80080F30988BFF36F8F704700BFA45300205C
:109BC800402383F31188FEE74FF0807340E90213C6
:109BD800054B40F80C3C6FF0020340F8202C40F88D
:109BE800243C4438704700BFC99B02000F4C08B59D
:109BF800E02384F8223000F06DF80D4B00221A6043
:109C0800D4F888300B4A43F47003C4F8883053689A
:109C180043F040435360236943F010032361FFF787
:109C28007DFF402383F31188FEE700BF00ED00E0CD
:109C38009053002030EF00E0402383F31188024A5C
:109C4800136801331360704790530020034A136868
:109C5800013B13600BB983F31188704790530020C0
:109C680073B5194B00221A601B680193019BEFF32F
:109C78001186402383F31188144BD3F80445C3F8A5
:109C8800002103F580731B680093009B00F00CFD16
:109C9800241A24F07F44012C04D900F09DFF0228E7
:109CA80018BF0124002514F1FF3409D225B1084B4F
:109CB8004FF080525A6040BF86F3118802B070BDE1
:109CC80000F006FD0543EEE7401101400010014099
:109CD80000ED00E008B5002001F042FB0A4B0B49FB
:109CE8001F22C3F808250122C3F804230A601A605A
:109CF8000222C3F84423064BE02283F811234FF4D1
:109D080000321A6008BD00BF001001400810014071
:109D180000E100E0F0B5054685B0EFF3108072B6BB
:109D2800374CA36883B90123A360364B3649D3F86F
:109D380080200A402260C3F88010D3F88420626033
:109D48004FF0FF32C3F8842000B962B62F4FD7F81E
:109D5800046500F021FF3B46002841D02C49A94268
:109D680028BF2946721822F07F420120C7F808034D
:109D7800C7F84025274A0020106010680190019814
:109D88004FF48030C7F80403BFF34F8F3DB11D482F
:109D980020BFD0F80071D0F804513D43F8D04FF4FB
:109DA8008030C3F808030020106012680392039AF9
:109DB800194A106012680292029A0122C3F8042319
:109DC800D3F804359B1B23F07F4088420D4B4FF49A
:109DD800003228BF0846C3F8802108B100F070FCA3
:109DE800A3685BB1EFF3108272B6064B2168196065
:109DF800616859600023A36002B962B605B0F0BD7E
:109E08007C33002000E100E0FC06FFBD00100140AB
:109E1800FDFFFF00401101400011014010B504464C
:109E2800FFF70AFFA46BFFF711FFB4FA84F04009AB
:109E380010BD70B51546026C866B044642B90568BC
:109E48009DB9406800F0D8FE65600136A66370BD14
:109E58006DB9806806F04FF9A368226C13446268F4
:109E6800A360934201D32368A3600020EDE7C06894
:109E780006F041F9236CE26821685B421A448A4281
:109E8800E2603EBF62689B18E360022DEDD10EB11F
:109E9800013EEAE73046D8E7034610B41A6C084694
:109EA80062B1D9685C681144A142D96024BF1968BD
:109EB800D960D9685DF8044B06F01DB95DF8044B0C
:109EC800704770B50446FFF7B7FE94F8455004F1A3
:109ED80024066DB2002D14DCFF2384F84530FFF70B
:109EE800B5FEFFF7A9FE94F8445004F110066DB2D0
:109EF800002D12DCFF2384F84430BDE87040FFF7E2
:109F0800A5BE636A002BE7D0304600F0D1FD08B14A
:109F180000F03CFE013D6DB2DCE72369002BE9D07F
:109F2800304600F0C5FD08B100F030FE013D6DB2CD
:109F3800DEE7000038B504460D46FFF77DFED4E99C
:109F48000F302268A2604343D1181B1A1344616082
:109F5800E3600021FF23A16384F8443084F845308E
:109F68009DB923696BB104F1100000F0A1FD40B167
:109F78000A4B4FF080525A6040BFBFF34F8FBFF378
:109F88006F8FFFF763FE012038BD04F11000FFF763
:109F980082FD04F12400FFF77EFDF2E700ED00E00A
:109FA80070B50646484348300D46FFF74BFD04465A
:109FB80038B145B92060C4E90F6501212046FFF793
:109FC800B9FF204670BD00F148030360F3E70000C5
:109FD8002DE9FF470026DFF8F490019204468A46EF
:109FE8001F46B046FFF728FEA26BE36B9A4201D3E7
:109FF800022F1AD13A4651462046FFF71AFF636AE4
:10A008001BB104F1240000F053FD40B12F4B4FF079
:10A0180080525A6040BFBFF34F8FBFF36F8FFFF777
:10A0280015FE012004B0BDE8F087019D1DB9FFF7BA
:10A038000DFE0020F6E716B902A800F073FDFFF741
:10A0480005FE00F029FBFFF7F7FD94F84430FF2BDD
:10A0580008BF84F8448094F84530FF2B08BF84F883
:10A068004580FFF7F3FD01A902A800F067FD30BBAA
:10A07800FFF7E2FDA26BE36B9A420ED1FFF7E6FD14
:10A08800019904F1100000F0EFFC2046FFF719FFDA
:10A0980000F096FB48B10126A4E7FFF7D7FD20465C
:10A0A800FFF70FFF00F08CFBF5E74FF08053C9F87E
:10A0B800043040BFBFF34F8FBFF36F8FEBE72046ED
:10A0C800FFF7FFFE00F07CFBB3E700BF00ED00E008
:10A0D800F8B505461746EFF31186402282F311883A
:10A0E800806BEA6B904201D3022B1ED195F8454054
:10A0F8001A4664B22846FFF79CFE631C10D16B6AAF
:10A108000BB9012009E005F1240000F0D1FC00287A
:10A11800F7D0002FF5D00120386086F31188F8BDFC
:10A12800013464B285F84540EBE70020F5E700000C
:10A138002DE9F04385B00026DFF8E490019204464B
:10A1480088463746FFF778FDA56BDDB141462046C6
:10A15800013DFFF7A1FEA56323696BB104F110006F
:10A1680000F0A6FC40B12E4B4FF080525A6040BF21
:10A17800BFF34F8FBFF36F8FFFF768FD012005B066
:10A18800BDE8F083019D1DB9FFF760FD0020F6E7EB
:10A1980016B902A800F0C6FCFFF758FD00F07CFADB
:10A1A800FFF74AFD94F84430FF2B08BF84F8447049
:10A1B80094F84530FF2B08BF84F84570FFF746FD3B
:10A1C80001A902A800F0BAFCF8B92046FFF726FE5C
:10A1D800A8B1019904F1240000F046FC2046FFF7DD
:10A1E80070FE00F0EDFA40B94FF08053C9F8043022
:10A1F80040BFBFF34F8FBFF36F8F0126A2E7204602
:10A20800FFF75FFE00F0DCFAF7E72046FFF759FE9C
:10A2180000F0D6FA2046FFF701FE0028EDD0B5E79A
:10A2280000ED00E0054B1A6812B19A682AB90122BC
:10A2380043F8321003EBC203586070479453002070
:10A2480070B504460D461646FFF7F6FC94F8443000
:10A25800FF2B04BF002384F8443094F84530FF2BCB
:10A2680004BF002384F84530FFF7F0FCA36B2BB93B
:10A278003246294604F1240000F006FC2046BDE8D9
:10A288007040FFF71EBE0000094B0A4A1B6812689F
:10A29800D06A58B9084A1268012A08D8012B06D88A
:10A2A800064B1868064B1B68C01A70470020704799
:10A2B80000540020A4530020B05300203054002044
:10A2C80078540020064A13681968064B19B94FF0EC
:10A2D800FF321A6070471268D268D2685268F8E78D
:10A2E800A853002030540020F8B51B4B1B4E1C68A7
:10A2F8000546306804300F46FFF7FEFB334640B989
:10A308003168174EC96A32680120884022EA000283
:10A3180032606A1C07D137B1196812480431BDE8A8
:10A32800F840FFF7C6BB1A686419546007D30E4A91
:10A3380010681968BDE8F8400431FFF7C6BB0B4A3E
:10A34800106819680431FFF7C0FB094B1A68A2426C
:10A3580088BF1C60F8BD00BF78540020A4530020BB
:10A368000054002050540020AC530020A853002073
:10A37800305400202DE9F84F4FEA820A80465046B3
:10A388000D4699460B9EFFF75DFB0746002800F037
:10A398009F804820FFF756FB0446002800F0958070
:10A3A80052460763A521384605F0CEFE236BAAF175
:10A3B800040A9A442AF0070A6B1E04F13402033592
:10A3C80013F8011F02F8011B197809B1AB42F7D144
:10A3D8000A9D022D28BF02254FF0000B271DE562BC
:10A3E800C4E90E5B384684F837B0FFF75FFBC5F168
:10A3F800030504F11800FFF759FBC4F840B02461C5
:10A40800A561646284F844B04A4641465046FFF765
:10A41800DBFB206006B13460FFF70EFC334B344E93
:10A428001A68DFF8008101321A603268002A52D1B6
:10A4380034601B68012B1FD12E48DFF8EC902E4D9D
:10A44800FFF729FB2D48FFF726FB2D48FFF723FBD5
:10A458004846FFF720FB2846FFF71DFB2948FFF772
:10A468001AFB2948FFF717FB2848FFF714FB284B6E
:10A47800C3F80090274B1D60274A284913680868CD
:10A4880001331360E26A012505FA02F303430B6006
:10A49800184B142000FB02303946FFF70AFBFFF780
:10A4A800D5FBD8F800306BB13368DA6AE36A9A42B0
:10A4B80008D21B4B4FF080525A6040BFBFF34F8FFA
:10A4C800BFF36F8F2846BDE8F88F3846FFF7E2FAEA
:10A4D8004FF0FF35F6E7D8F80030002BCCD13368C1
:10A4E800DA6AE36A9A4298BF3460C5E7EC53002001
:10A4F800A4530020B053002018540020C453002057
:10A50800D8530020385400206454002050540020B0
:10A51800A8530020AC530020FC5300200054002016
:10A5280000ED00E04C5400200454002070B50446AF
:10A53800002832D0194D2B6883422ED0FFF77CFBC0
:10A548006269174B9A4224D1A36A164A934220D0D3
:10A55800FBB9261D3046FFF7CFFA1349E26A0868AF
:10A568000123934003430B60104B142000FB02307F
:10A578003146FFF79EFA2B68E26ADB6A9A4208D3F3
:10A588000B4B4FF080525A6040BFBFF34F8FBFF361
:10A598006F8FBDE87040FFF759BB70BDA453002012
:10A5A800505400203854002000540020B05300209C
:10A5B80000ED00E0F8B50546EFF31186402383F37C
:10A5C8001188174B42699A4228D1846A15488442F7
:10A5D80024D01CBB144B1B68EBB9144BEC6A1B68EA
:10A5E800DB6A2F1D9C42384634BF00240124FFF744
:10A5F80083FA0F49EA6A08680123934003430B6012
:10A608000C4B1420394600FB0230FFF752FA86F350
:10A6180011882046F8BD05F11801F6E70024F6E791
:10A628005054002038540020F8530020A453002030
:10A6380000540020B053002013B5114B019300249F
:10A64800009423463C220F490F48FFF793FE012848
:10A6580013D100F027FC01280FD1402383F3118880
:10A668000A4B4FF0FF321A60094B1860094B1C6007
:10A6780002B0BDE81040FFF7B9BA02B010BD00BF84
:10A688002C54002042180300D1A8020030540020A6
:10A698004C54002078540020024A13680133136098
:10A6A800704700BFF8530020014B1868704700BF7F
:10A6B80078540020014B1868704700BF7854002078
:10A6C800024A136818441060704700BF785400208D
:10A6D8002DE9F84F2F4B1B68002B54D12E4B1D68CA
:10A6E80001351D605DB92D4A2D4B11681868106041
:10A6F8002C4A1960136801331360FFF7E3FD2A4FF2
:10A708003B68AB424FF0000607D9284B1B68002B6B
:10A718000CBF30460120BDE8F88FDFF880A0DFF8D5
:10A728009890DFF898B0DAF800301B681BB94FF042
:10A73800FF333B60E9E7DAF80030DB68DC68636820
:10A748009D42F6D304F104084046FFF7D5F9A36A01
:10A758001BB104F11800FFF7CFF9E26AD9F800102D
:10A768000123934014200B4300FB02B04146C9F873
:10A778000030FFF79EF90E4BE26A1B68DB6A9A42CB
:10A7880028BF0126CFE70B4A136801331360002660
:10A79800BBE700BFF853002078540020A8530020DE
:10A7A800AC53002034540020305400207C54002046
:10A7B800A4530020F453002000540020B05300207C
:10A7C8002DE9F843FFF738FA2A4B1A68013A1A605C
:10A7D8001C682CB10024FFF739FA2046BDE8F8833D
:10A7E800254B1B68002BF5D0244D254EDFF8A4809F
:10A7F8001FE0EB68DC6804F1040904F11800FFF7B6
:10A808007BF94846FFF778F9E26A3168012707FAC9
:10A8180002F314200B4300FB028049463360FFF724
:10A8280048F9184BE26A1B68DB6A9A4201D3164B57
:10A838001F602B68002BDCD10CB1FFF743FD134DD3
:10A848002C6844B1104E0127FFF742FF00B1376072
:10A85800013CF9D12C600C4B1B68002BBAD00C4B77
:10A868004FF080525A6040BFBFF34F8FBFF36F8FD6
:10A878000124B0E7F8530020EC530020385400209E
:10A8880000540020A45300207C540020F4530020DE
:10A8980000ED00E0B053002008B548B9094B4FF06F
:10A8A80080525A6040BFBFF34F8FBFF36F8F08BD10
:10A8B800FFF7F2FE0021FFF717FDFFF781FF0028E1
:10A8C800ECD0F4E700ED00E0F8B51C4C1C4F1D4E31
:10A8D8002368EBB91C4B1B68012B08D91B4B4FF0A5
:10A8E80080525A6040BFBFF34F8FBFF36F8F03F0A2
:10A8F8008DFEFFF7C9FC0128E9D9FFF7CDFEFFF768
:10A90800C3FC012801D9FFF705FAFFF759FFDEE775
:10A91800FFF792F9FB68DD68281DFFF7EDF833684B
:10A92800013B33602368013B2360FFF78FF9286BF5
:10A93800FFF7B0F82846FFF7ADF8C9E7F053002055
:10A9480064540020EC530020B053002000ED00E0D8
:10A95800114B1A68114B30B512B101221A6030BD83
:10A968001A600F4B0F491B68B3FA83F3C3F11F0337
:10A97800142000FB03F28C18083265686D68656066
:10A988000A44954204BF6A68626000FB03135B686F
:10A99800DA68054BE2E700BFF85300207C5400203A
:10A9A80000540020B0530020A453002070B5044682
:10A9B800264EFFF741F904B93468251D2846FFF7EC
:10A9C8009BF860B9E06A224B142141435B5833B9C4
:10A9D800204901220B68824023EA02030B60A36A24
:10A9E8001BB104F11800FFF787F829461A481B4DD8
:10A9F800FFF75FF894F84430012B04BF002384F874
:10AA08004430FFF723F92A682AB1FFF715F9FFF751
:10AA180059FCFFF71BF93368A3420AD12B684BB1E5
:10AA28000F4B4FF080525A6040BFBFF34F8FBFF3B8
:10AA38006F8F70BD084A11680A4A1268914201D1A5
:10AA48003360F6E7BDE87040FFF782BFA4530020EB
:10AA5800B053002000540020505400204C540020D3
:10AA680000ED00E0EC53002010B5064B0C461968C9
:10AA78001831FFF72AF820460121BDE81040FFF7FA
:10AA880033BC00BFA453002038B5084B0D461968E5
:10AA980014461831FFF70DF8002C21460CBF284644
:10AAA8004FF0FF30BDE83840FFF71EBCA45300202C
:10AAB80038B5C368DC6804F118052846FFF71CF8A8
:10AAC800124B1B68F3B9251D2846FFF715F81049E6
:10AAD800E26A08680123934003430B600D4B14207E
:10AAE800294600FB0230FEF7E4FF0B4BE26A1B68C5
:10AAF800DB6A9A4285BF094B012000201860FFF7E6
:10AB0800E1FB38BD29460648EDE700BFF8530020B1
:10AB180000540020B0530020A45300207C5400208F
:10AB280038540020034B1B680360034B1B684360C9
:10AB3800704700BF345400207854002070B50C468C
:10AB48000546FFF779F80F4B1A682368591C0FD090
:10AB58000D482E6800686968864201D091420ED976
:10AB6800521A934209D99B1A23602846FFF7DAFF45
:10AB78000024FFF76BF8204670BD002323600124F2
:10AB8800F7E700BF7854002034540020014B01221D
:10AB98001A6070477C540020084B186860B9084B4D
:10ABA8001B6853B9074B1868074B1B68013B984251
:10ABB80014BF01200220704700207047385400203D
:10ABC8007C54002050540020EC530020014B18689E
:10ABD800704700BFA4530020054B1B6833B1054BD9
:10ABE8001B68002B0CBF0220002070470120704713
:10ABF8004C540020F8530020F8B5044608B900204A
:10AC0800F8BDC36BC16A826B013B9142C363F6D046
:10AC1800002BF4D1051D2846FEF76EFF104E114A91
:10AC280050B9E76A1421794373582BB91368012086
:10AC3800B84023EA00031360A36BE362C3F1030186
:10AC4800A1611168012404FA03F00843106014207C
:10AC580000FB03602946FEF72CFF2046D0E700BF23
:10AC6800B05300200054002070B5174C06460D461E
:10AC7800FEF7E2FF23681B6C83B92368012183F880
:10AC880044105DB12846FFF72FFB104B4FF0805260
:10AC98005A6040BFBFF34F8FBFF36F8FFEF7D6FFE9
:10ACA800FEF7CAFF23681D6C1DB123684EB1002250
:10ACB8001A642368002283F84420FEF7C7FF284659
:10ACC80070BD6A1EF4E700BFA453002000ED00E049
:10ACD800F8B51D4604460F461646FEF7ADFF0DB102
:10ACE800236C2B6094F844500223721EEDB284F852
:10ACF8004430032A0AD8DFE802F002060410216C67
:10AD08000F43276402E0236C01332364012D08D02C
:10AD18000125FEF79BFF2846F8BD022DF1D100253D
:10AD2800F7E7261D3046FEF7E7FE1049E26A086895
:10AD380005FA02F303430B600D4B142000FB0230AD
:10AD48003146FEF7B6FEFFF7BDFA0A4BE26A1B680A
:10AD5800DB6A9A42DCD9084B4FF080525A6040BFF8
:10AD6800BFF34F8FBFF36F8FD3E700BF00540020AE
:10AD7800B0530020A453002000ED00E02DE9F0417D
:10AD880004460E46EFF31187402383F3118802230C
:10AD980090F8445080F84430036CEDB20133012D33
:10ADA80003641DD1144B1B68F3B900F10408404635
:10ADB800FEF7A2FE114AE36A11689D400D43156033
:10ADC8000F4A1420414600FB0320FEF772FE0D4B8C
:10ADD800E26A1B68DB6A9A4202D9012346B13360F2
:10ADE80087F31188BDE8F08100F118010648ECE707
:10ADF800064A1360F4E700BFF8530020005400200F
:10AE0800B0530020A4530020385400207C54002064
:10AE1800F8B50F4CFEF710FF2568ADB90D4F0E4E73
:10AE28003846FEF738FE3046FEF735FE0B4B1F60FE
:10AE38000B4B2A46102120201E60FFF7B1F8206036
:10AE480010B10849FFF7EEF9BDE8F840FEF7FEBE7D
:10AE5800B4540020885400209C54002080540020C2
:10AE68008454002047180300914208B541600061EE
:10AE78000AD8D21A83699A420DD2084B011D186864
:10AE8800FEF723FE002008BD9A4201D2994202D261
:10AE9800011D034BF3E70120F5E700BF84540020B0
:10AEA8008054002007B5FFF7B3FF084B186848B176
:10AEB800074B0193022300935022002305490648BB
:10AEC800FFF758FA03B05DF804FB00BFB454002044
:10AED800B85400204C180300C5AF02002DE9F0411A
:10AEE800804628200F4616461D46FEF7ABFD044651
:10AEF80058B1FFF78DFF069BC4F80080C4E90676B9
:10AF080025626362201DFEF7D1FD2046BDE8F08171
:10AF18007FB50F4C0546206816461A4680B10529AC
:10AF2800CDE9001602950DDCFFF756FE0023022836
:10AF380008BF089A206818BF1A466946FFF748F8FC
:10AF480004B070BD00236946FFF7C2F8F8E700BFF8
:10AF5800B45400202DE9F341164D4FF000082B683A
:10AF68001A6832B9144A11682960136002B0BDE842
:10AF7800F081DB68DC681E68271D3846FEF7BCFDDB
:10AF8800636A20469847E369012BE8D1A3693344F3
:10AF98009E4206D26360246139462868FEF795FD13
:10AFA800DDE70023CDF80080324619462046FFF73A
:10AFB800AFFFD4E780540020845400202DE9F04FDF
:10AFC8005B4D89B0A9464FF0000A2A681368002B28
:10AFD8004AD0D268D2F800B0564C0393FFF75CFB16
:10AFE800FFF762FB2268544E039B90428046274637
:10AFF8003CD2FFF7AFFFC4F80080FFF7E1FB4FF04A
:10B00800010B002204A93068FFF792F80028DCD071
:10B01800049B002B03DADDE90601059B9847049B96
:10B02800002BEEDB069C636913B1201DFEF764FD5F
:10B03800FFF73AFB3B689842024603D20390FFF7BA
:10B0480089FF039A049B3A60092BDAD80BFA03F3B9
:10B0580013F4047863D113F0C70F46D19B06D0D5FB
:10B068002046FEF717FDCCE79B46B5E720600BB3FB
:10B07800834538D8FFF7A4FBD9F80030DB68DC68D3
:10B08800201DFEF739FDE369012B0FD1A1695B464D
:10B09800424659442046FFF7E7FE38B10023CDF871
:10B0A80000A05A4619462046FFF732FF636A204639
:10B0B8009847A4E7214B1B681A68B2FA82F2520932
:10B0C800ABEB08013068FFF7BBF8FFF779FB002806
:10B0D80095D11B4B4FF080525A6040BFBFF34F8F42
:10B0E800BFF36F8F8BE70022EAE7A169059B204633
:10B0F8001944FFF7B9FE002883D0636A20469847B1
:10B10800E369012B7FF47DAFA2690599CDF8008032
:10B118000A44434641462046FFF7FAFE71E705997F
:10B12800A161134611442046FFF79EFE69E700BF60
:10B1380080540020B0540020B454002084540020CF
:10B1480000ED00E010B50446FEF776FD64690034B2
:10B1580018BF0124FEF77AFD204610BD10B504463D
:10B16800FEF76AFD246AFEF771FD204610BD000057
:10B17800074B1B5C1F2B8ABF064A4FF0A04203F007
:10B188001F03D2F80405D840C04300F001007047FF
:10B198005818030000030050074B1B5C1F2B86BF89
:10B1A80003F01F0305494FF0A041012202FA03F3FF
:10B1B800C1F80C35704700BF581803000003005051
:10B1C800074B1B5C1F2B86BF03F01F0305494FF07D
:10B1D800A041012202FA03F3C1F80835704700BF05
:10B1E800581803000003005008B50020FFF7E8FFD7
:10B1F8000120FFF7E5FF0220FFF7E2FF0320BDE88B
:10B208000840FFF7DDBF08B50020FFF7C5FF0120A4
:10B21800FFF7C2FF0220FFF7BFFF0320BDE8084089
:10B22800FFF7BABF0A4B185C1F288ABF094B4FF0BB
:10B23800A04300F01F00D3F804250121814021EA32
:10B2480002000A40C3F80805C3F80C25704700BF80
:10B2580058180300000300500B2809D00C2809D007
:10B26800182809D019280CBF03204FF0FF30704769
:10B27800002070470120704702207047014B185C7E
:10B28800704700BF54180300C20710B504460CD518
:10B298004FF0A0430322C3F83427C3F83827C3F874
:10B2A8003C27C3F84027FFF79FFFA3070AD54FF0B5
:10B2B800A0430C22C3F82C27C3F83027C3F8602713
:10B2C800C3F8642710BD42DF704743DF70470000B2
:10B2D80038B5084C04F108030546002818BF1C4679
:10B2E80023682BB11A6822605B6828469847F7E7FD
:10B2F80038BD00BFC454002020B9054B01225A7044
:10B30800FFF7E6BF012802D1014A9070F8E77047BD
:10B31800BC54002020B9034B01225A70FFF7D8BF54
:10B32800704700BFBC54002038B50B4C237883B954
:10B338000A486360A3602361E36001F0BDFB054632
:10B3480004F0EAFC08B901F0C5FB01232370284684
:10B3580038BD8525FBE700BFBC54002001B30200BF
:10B3680037B5184CA378054603F0FF029BB110B11E
:10B3780043680120984700230DF107008DF8073036
:10B38800FDF78AFDE3689DF807000133E360FDF7E8
:10B39800A7FD03B030BD0DF107008DF80720FDF7BC
:10B3A8007BFD25B1226913463BB92A602561E36814
:10B3B800002BE7D101F0A6FBE4E79D42F7D01B681C
:10B3C800F2E700BFBC54002037B502A80023094C9F
:10B3D80000F8013DFDF760FDE368013BE360E568C7
:10B3E80015B901F09DFBA5709DF80700FDF778FDE4
:10B3F80003B030BDBC540020012813B509D003D3D5
:10B4080003281BD002B010BD0F4B0122C3F88020C7
:10B41800F8E702A800230D4C00F8013DFDF73CFDBC
:10B4280023780BB9FFF780FFE3689DF80700013325
:10B43800E3600123A370FDF753FDE3E701F04AFB46
:10B44800FFF7C2FFDEE700BF00E100E0BC540020C8
:10B4580037B51B4C6378054603F0FF029BB110B16A
:10B4680043680020984700230DF107008DF8073046
:10B47800FDF712FD63689DF8070001336360FDF76F
:10B488002FFD03B030BD0DF107008DF80720FDF743
:10B4980003FD25B1A268134653B92A60A560636805
:10B4A800002BE7D104F038FC30B1FFF70CFFE1E7DF
:10B4B8009D42F4D01B68EFE701F03EFBDAE700BFDE
:10B4C800BC54002073B502A800230D4C00F8013DC0
:10B4D800FDF7E2FC6368013B6360666836B904F017
:10B4E8001BFC054640B1FFF7F0FE66709DF80700AB
:10B4F800FDF7F6FC02B070BD01F02AFB6570F5E7B8
:10B50800BC54002036DF70474DDF70474EDF704770
:10B518004FDF704750DF704708B50346FFF7F6FF67
:10B5280040B91846FFF7F0FF20B91846BDE80840B3
:10B53800FFF7EEBF08BD012810B5044602D101F09F
:10B5480085FD804701F088FD034668B10A2C07D0C5
:10B558000B2C07D0092C07D10220BDE81040184752
:10B568000020FAE70120F8E710BD0000012813B514
:10B57800044603D0032819D002B010BD02A8002346
:10B5880000F8013DFDF788FC01F060FD10B1204690
:10B59800FFF7B8FF9DF80700FDF7A2FC01F05CFD7E
:10B5A8000028E9D00120FFF7B7FFE5E70D4BC022DF
:10B5B80083F800230122C3F880211A6001F046FDB8
:10B5C80020B14FF080430422C3F8042301F044FD66
:10B5D8000028D1D04FF080434FF46072C3F80423A1
:10B5E800CAE700BF00E100E038B50A4C23780546F9
:10B5F80063B904F091FB58B90748002D18BF2846D5
:10B6080001F030FD08B90123237038BD8520FCE71F
:10B618000820FAE7D05400206218030013B502A8E6
:10B62800002400F8014DFDF737FC04F075FB50B11C
:10B638002046FFF771FF9DF80700FDF751FC01F068
:10B648004DFD02B010BD01F042FDF4E713B504460C
:10B65800FFF7E4FF204601F029FD04F05DFB0446F6
:10B66800A0B10120FFF758FF044660B901A8FFF711
:10B6780051FF044638B9019BDB0704D501F0ECFC07
:10B68800034620469847204602B010BD01F018FD39
:10B69800F9E700001FB503788DF80030436801937F
:10B6A800037A8DF80830C3680393054A054B68464A
:10B6B80053F8213052F82110984705B05DF804FB83
:10B6C800D4540020DC5400201FB503788DF80030D6
:10B6D8004368019383688DF80830C3680393054A6B
:10B6E800054B684653F8213052F82110984705B0A9
:10B6F8005DF804FBD4540020DC540020F0B5194B4D
:10B708000678DFF870E043F82620174B94460A695C
:10B7180043F826204B7F0EF806300C4607460FCC20
:10B7280089B06D460FC594E80F0085E80F001EF834
:10B738000630049653B1BCF1000F0C4A694608BFA5
:10B748000022381D02F060F809B0F0BDBCF1000F0E
:10B75800074A694608BF002207F10C0001F03AFECB
:10B76800F2E700BFDC540020D45400209DB602004C
:10B77800D1B60200E454002000F1804000F51C30EE
:10B7880001230360BFF36F8FBFF34F8F7047000033
:10B79800064A10F0800F00F00F0314BFD2F810050E
:10B7A800D2F81405D84000F001007047007002403C
:10B7B800054B1B68082B01BF044B1868B0FA80F0D2
:10B7C800400918BF002070473001001034010010F4
:10B7D800084B1B68082B08D1074B1868431E012B20
:10B7E80005D9C31E584258417047002070470120B0
:10B7F800704700BF300100103401001030B54C68AC
:10B808000D689C4229BFC0E900530021E41AED18D5
:10B8180032BFC0E900514C600D60934203D1201C37
:10B8280018BF012030BD0020FCE74B6810B59A42D4
:10B838000C6828BF1A46C0E90042981A0B6848608D
:10B84800134400300B6018BF012010BD30B54C68A0
:10B858000B68A24228BF2246002A14BF1D460025B5
:10B86800A4EB02041344C0E900524C600B6014BFFF
:10B878000120002030BD0000054B10F0800FA3F11F
:10B88800900208BF134600F00F0003EB001070474A
:10B898005C56002010F0800F14BF0023102300F026
:10B8A8000F00184470470000024A00231360024A40
:10B8B800137070471C7C0240E754002007B5084A03
:10B8C80000231370074A019302A81370012300F89C
:10B8D800043D054B1B68984703B05DF804FB00BFA7
:10B8E800E6540020F0560020EC5600207047000077
:10B8F800F8B54D680B4F954228BF15460C460646CD
:10B908002A460968384604F0F6FB60682368401B3D
:10B91800C6E9007560601D440030256018BF01202D
:10B92800F8BD00BFF8560020F8B54C68944228BF0F
:10B93800144606460D468CB1094F0968224638461A
:10B9480004F0D9FB37606B6874601B1B6B602B6855
:10B95800201C23442B6018BF0120F8BD0460F2E7C7
:10B96800F856002007B500238DF804300B4BD3F8A8
:10B978002025ADF80620D3F8C034094A002B1368F7
:10B988000CBF4FF480714FF001210B431360054B3E
:10B9980001A81B68984703B05DF804FB00700240DB
:10B9A800C8550020EC56002013B5124C012223681C
:10B9B80002FA01F10B4323600F4B1B681940030681
:10B9C8000DD551B906238DF804308DF806008DF891
:10B9D80007100A4B01A81B68984702B010BD002940
:10B9E800FBD106238DF804308DF806008DF807206A
:10B9F800EFE700BFC855002058550020EC5600203E
:10BA080008B5054B1A781046FFF744FFBDE8084013
:10BA180001461046FFF7C8BFF056002008B501469A
:10BA2800FFF742FFFFF728FF837B032B0AD1084665
:10BA3800FFF730FF01218140C9430448BDE80840B1
:10BA4800FDF7D0BB0368002BF1D008BD5855002086
:10BA58008720FFF7E3BF8620FFF7E0BF8520FFF7C9
:10BA6800DDBF8420FFF7DABF8320FFF7D7BF82202E
:10BA7800FFF7D4BF8120FFF7D1BF000008B5FFF75B
:10BA880013FF084B93F89E20032A06D16FF001019B
:10BA98000548BDE80840FDF7A5BBD3F89030002B5A
:10BAA800F4D008BDCC5500205855002013B5FFF739
:10BAB800FBFE114B93F81E21032A06D16FF4807107
:10BAC8000E48FDF78FFB02B010BDD3F81041002CD3
